:060000000A128A11E32F31
:10087000303431343234333434343534363437343C
:10088000383439347E088A007F08820042240A12F4
:100890008A118000840A04087D0603190034FF0AC7
:1008A0000319FE0A462CF401F501701C5D2C720838
:1008B000F4070318F50A7308F50701300310F20D69
:1008C000F30DFF3E031D5E2C01300310F10CF00C04
:1008D000FF3E031D652C70087104031D552C75081F
:1008E000F1007408F00008000130F4000030F50059
:1008F0000030F6000030F7007408F0027508031CA1
:10090000750F832C842CF1027608031C760F892C3A
:100910008A2CF2027708031C770F8F2C902CF3029D
:10092000730872047104700403190800742CF00039
:10093000831203138610061586148610F101F20146
:100940007208803AFF0080307F02031DA92C083016
:10095000710203180800F01FB12C8312031306154F
:10096000B42C83120313061186140310F00D8610A5
:100970000130F1070318F20A0030F207A02CF00052
:10098000831203138610061186148610F101F201FA
:100990007208803AFF0080307F02031DD12C08309E
:1009A000710203180800F01FD92C831203130615D7
:1009B000DC2C83120313061186140310F00D86102D
:1009C0000130F1070318F20A0030F207C82C831235
:1009D0000313A200A001A10120082207FB007B084D
:1009E00084000A3083130006031908002008220738
:1009F000FB007B088400831300080A128A11032677
:100A00000A128A1100300A128A1197240A128A11D6
:100A1000013083120313A0070318A10A0030A107B5
:100A2000EC2CFA007A08B0380A128A11BF240A1294
:100A30008A117308F40004300310F40CFF3E031D08
:100A40001C2D07307405F50010307504F6000030D9
:100A5000F70073080F39F400F5017408F800750801
:100A6000F90076080A128A11BF240A128A1178083E
:100A70000A128A11BF240800203420342034203484
:100A800020342034203420342034203420342034C6
:100A900020342034203420340A3453346534633411
:100AA0006F346E3464345F346C3469346E3465345E
:100AB0000A340034C534F934B8342034F134F23413
:100AC000F034EE34EA34E0340A3400344634693425
:100AD0007234733474345F346C3469346E34653416
:100AE0000A3400348316031306108610061186118B
:100AF00006128312031306108610061186150612BD
:100B000000300A128A11D7260A128A1101300A12FD
:100B10008A11D7260A128A1102300A128A11D726A0
:100B20000A128A111E30FC007C08F30006300A12FB
:100B30008A1111250A128A1183120313DE01DF01C3
:100B40005F08803AFF0080307F02031DA92D0A3024
:100B50005E0203189C2D3C30FC007C08F300003042
:100B60000A128A1111250A128A11831203135E08D0
:100B7000603E8400831300080A128A1103260A12B9
:100B80008A114630FC007C08F30001300A128A11F9
:100B900011250A128A11831203135E08603E840035
:100BA000831300080A128A1103260A128A113C30A4
:100BB000FC007C08F30002300A128A1111250A1287
:100BC0008A11831203135E08603E840083130008B9
:100BD0000A128A1103260A128A110030F30001302A
:100BE000F2008630F100A030F0000A128A1174245D
:100BF0000A128A11013083120313DE070318DF0A79
:100C00000030DF07A02DFA007A08F600F701760819
:100C1000F0007708F1000530F2000030F3000A120E
:100C20008A1153240A128A11883071078312031320
:100C3000FF001230700784000318FF0A0A128A1599
:100C400000200A128A110A128A1197240A128A11A4
:100C50007A08F600F7017608F0007708F100053011
:100C6000F2000030F3000A128A1153240A128A118A
:100C70007008013EF80071080318013E003EF900BB
:100C80008830790783120313FF001230780784003D
:100C90000318FF0A0A128A1500200A128A110A1282
:100CA0008A1197240A128A117A08F600F701760849
:100CB000F0007708F1000530F2000030F3000A126E
:100CC0008A1153240A128A117008023EF800710832
:100CD0000318013E003EF9008830790783120313A0
:100CE000FF001230780784000318FF0A0A128A15E1
:100CF00000200A128A110A128A1197240A128A11F4
:100D00007A08F600F7017608F0007708F100053060
:100D1000F2000030F3000A128A1153240A128A11D9
:100D20007008033EF80071080318013E003EF90008
:100D30008830790783120313FF001230780784008C
:100D40000318FF0A0A128A1500200A128A110A12D1
:100D50008A1197240A128A117A08F600F701760898
:100D6000F0007708F1000530F2000030F3000A12BD
:100D70008A1153240A128A117008043EF80071087F
:100D80000318013E003EF9008830790783120313EF
:100D9000FF001230780784000318FF0A0A128A1530
:100DA00000200A128A110A128A119724080083125D
:100DB0000313DD005D08031D2B2F06148611061694
:100DC0000030F3000030F2000130F1002230F0007A
:100DD0000A128A1174240A128A11E2300A128A1144
:100DE000BF240A128A110030F3000030F2000030F4
:100DF000F1001430F0000A128A1174240A128A11C8
:100E0000A4300A128A11BF240A128A110030F3009A
:100E10000030F2000030F1001430F0000A128A11A4
:100E200074240A128A112F300A128A11BF240A125E
:100E30008A110030F3000030F2000030F10014306D
:100E4000F0000A128A1174240A128A11AF300A12B1
:100E50008A11BF240800831203135D03031D782F3A
:100E60004C308400A030A3000408A4001130A50079
:100E70002308840083130008A600A30A2408840022
:100E800026088000A40AA50B382FF30100300A12AF
:100E90008A1111250A128A114C300A128A11E7248C
:100EA0000A128A11F30101300A128A1111250A125D
:100EB0008A114C300A128A11E7240A128A11F301AE
:100EC00002300A128A1111250A128A114C300A12B4
:100ED0008A11E7240A128A11F30103300A128A11D7
:100EE00011250A128A114C300A128A11E7240800CF
:100EF0000230831203135D06031D080034308400A2
:100F0000CA30A3000408A4000C30A5002308840004
:100F100083130008A600A30A240884002608800082
:100F2000A40AA50B862F27308400B130A300040843
:100F3000A4000D30A5002308840083130008A60038
:100F4000A30A2408840026088000A40AA50B9B2F6E
:100F500040308400BE30A3000408A4000C30A5007B
:100F60002308840083130008A600A30A2408840031
:100F700026088000A40AA50BB02FF30100300A1246
:100F80008A1111250A128A1134300A128A11E724B3
:100F90000A128A11F30101300A128A1111250A126C
:100FA0008A1127300A128A11E7240A128A11F301E2
:100FB00002300A128A1111250A128A1140300A12CF
:100FC0008A11E72408008313D630FD000530FE00A7
:100FD0003C30FF00A03084000A128A1146240A1215
:100FE0008A116A30FD000430FE003830FF006030A6
:100FF00084000A128A11462483010A128A11722D72
:10100000FF1B0A2883137F1883170008840A03191B
:10101000FF0A08007F087F398A000408840A031940
:10102000FF0A8200003400340034003400340034FD
:101030000034003400340034003400340034003410
:101040000034003400340034003400340034003400
:1010500000340034003400340034003400340034F0
:101060007F343F341F349F349F34003400340034C5
:1010700000340034003400340034003400340034D0
:1010800000340034003400340034003400340034C0
:1010900000340034003400340034003400340034B0
:1010A00000340034003400340034003400340034A0
:1010B0000034003400340034003400340034003490
:1010C0000034003400340034003400340034003480
:1010D0000034003400340034003400340034003470
:1010E0000034003400340034003400340034003460
:1010F0000034003400340034003400340034003450
:10110000003400340034003400340034003400343F
:10111000003400340034003400340034003400342F
:10112000003400340034003400340034003400341F
:10113000003400340034003400340034003400340F
:1011400000340034003400340034003400340034FF
:1011500000340034003400340034003400340034EF
:1011600000340034003400340034003400340034DF
:1011700000345F3400340034003407340034073462
:10118000003414347F3414347F34143424342A3437
:101190007F342A34123423341334083464346234F0
:1011A0003634493455342234503400340534033451
:1011B0000034003400341C34223441340034003410
:1011C000413422341C34003408342A341C342A3488
:1011D0000834083408343E340834083400345034B9
:1011E0003034003400340834083408340834083407
:1011F00000343034303400340034203410340834B7
:10120000043402343E345134493445343E340034DD
:1012100042347F34403400344234613451344934F0
:1012200046342134413445344B3431341834143489
:1012300012347F341034273445344534453439343E
:101240003C344A344934493430340134713409343B
:101250000534033436344934493449343634063499
:101260004934493429341E34003436343634003499
:10127000003400345634363400340034003408343A
:1012800014342234413414341434143414341434E3
:1012900041342234143408340034023401345134DB
:1012A0000934063432344934793441343E347E349E
:1012B0001134113411347E347F3449344934493483
:1012C00036343E3441344134413422347F34413465
:1012D000413422341C347F34493449344934413454
:1012E0007F3409340934013401343E34413441340B
:1012F000513432347F340834083408347F340034B5
:1013000041347F34413400342034403441343F345C
:1013100001347F3408341434223441347F3440346F
:101320004034403440347F340234043402347F3457
:101330007F340434083410347F343E344134413433
:1013400041343E347F3409340934093406343E34A0
:101350004134513421345E347F3409341934293412
:101360004634463449344934493431340134013443
:101370007F34013401343F344034403440343F340E
:101380001F342034403420341F347F342034183448
:1013900020347F3463341434083414346334033415
:1013A00004347834043403346134513449344534DA
:1013B0004334003400340034003400340234043444
:1013C0000834103420340034003400340034003445
:1013D00004340234013402340434403440344034A0
:1013E00040344034003401340234043400342034B6
:1013F00054345434543478347F344834443444348A
:101400003834383444344434443420343834443464
:10141000443448347F3438345434543454341834D5
:1014200008347E340934013402340834143454341A
:1014300054343C347F340834043404347834003475
:1014400044347D34403400342034403444343D341A
:10145000003400347F3410342834443400344134B0
:101460007F34403400347C34043418340434783409
:101470007C34083404340434783438344434443408
:10148000443438347C341434143414340834083478
:101490001434143418347C347C3408340434043464
:1014A00008344834543454345434203404343F34ED
:1014B0004434403420343C344034403420347C3490
:1014C0001C342034403420341C343C344034303418
:1014D00040343C34443428341034283444340C34FC
:1014E0005034503450343C344434643454344C34E8
:1014F0004434003408343634413400340034003489
:101500007F3400340034003441343634083400343D
:101510000234013402340434023400340034003420
:10152000003400340034003400340034003400341B
:10153000003400340034003400340034003400340B
:1015400000340034003400340034003400340034FB
:1015500000340034003400340034003400340034EB
:1017500000340034383455345434553408340034AB
:1017600000340034003400340034003400340034D9
:1017700000340034003400340034003400340034C9
:1017800000340034003400340034003400340034B9
:1017900000340034003400340034003400340034A9
:1017A000003400347E341134113411347E347F34EB
:1017B00049344934493433347F3449344934493421
:1017C00036347F340134013401340334E03451348D
:1017D0004F344134FF347F34493449344934493437
:1017E000773408347F340834773449344934493401
:1017F000493436347F341034083404347F347C3434
:101800002134123409347C347F34083414342234C3
:101810004134203441343F3401347F347F34023446
:101820000C3402347F347F340834083408347F3475
:101830003E344134413441343E347F340134013448
:1018400001347F347F3409340934093406343E349A
:101850004134413441342234013401347F34013481
:10186000013427344834483448343F341C3422345B
:101870007F3422341C346334143408341434633415
:101880007F34403440344034FF3407340834083463
:1018900008347F347F3440347F3440347F347F34A5
:1018A00040347F344034FF3401347F34483448348A
:1018B00030347F344834303400347F347F3448341B
:1018C00048343034003422344134493449343E34CD
:1018D0007F3408343E3441343E344634293419349C
:1018E00009347F34203454345434543478343C3400
:1018F0004A344A34493431347C34543454342834EE
:1019000000347C340434043404340C34E03454346F
:101910004C344434FC34383454345434543408345F
:101920006C3410347C3410346C34443444345434C7
:10193000543428347C342034103408347C347834E3
:1019400042342434123478347C341034283444340F
:101950000034203444343C3404347C347C34083443
:10196000103408347C347C341034103410347C341B
:10197000383444344434443438347C340434043407
:1019800004347C347C34143414341434083438343F
:101990004434443444344434043404347C3404340F
:1019A00004340C345034503450343C34183424341F
:1019B0007E342434183444342834103428344434E5
:1019C0007C34403440344034FC340C341034103413
:1019D00010347C347C3440347C3440347C347C346B
:1019E00040347C344034FC3404347C34503450343F
:1019F00020347C345034203400347C347C345034F3
:101A0000503420340034283444345434543438347A
:101A10007C34103438344434383408345434343456
:041A200014347C34CA
:02400E003AFF77
:00000001FF
